:020000040800F2
:1000000000500020FD1F0008711F0008791F000824
:10001000811F0008891F0008911F000800000000D0
:10002000000000000000000000000000991F000810
:10003000A51F000800000000B11F0008BD1F000838
:1000400045200008452000084520000845200008FC
:1000500045200008452000084520000845200008EC
:1000600045200008452000084520000845200008DC
:1000700045200008452000084520000845200008CC
:1000800045200008452000084520000845200008BC
:1000900045200008C91F0008452000084520000829
:1000A000452000084520000845200008452000089C
:1000B0004520000845200008DD1F000845200008F5
:1000C000452000084520000845200008452000087C
:1000D000452000084520000845200008452000086C
:1000E00045200008452000084520000800000000C9
:1000F0000000000000000000000000000000000000
:0C01000000000000000000005FF808F1A3
:1001100010B5054C237833B9044B13B10448AFF341
:1001200000800123237010BD180000200000000093
:100130002C54000808B5034B1BB103490348AFF327
:10014000008008BD000000001C0000202C540008A6
:1001500081F0004102E000BF83F0004330B54FEA78
:1001600041044FEA430594EA050F08BF90EA020FE5
:100170001FBF54EA000C55EA020C7FEA645C7FEA78
:10018000655C00F0E2804FEA5454D4EB5555B8BF9B
:100190006D420CDD2C4480EA020281EA030382EA0C
:1001A000000083EA010180EA020281EA0303362D9E
:1001B00088BF30BD11F0004F4FEA01314FF4801C71
:1001C0004CEA113102D0404261EB410113F0004F83
:1001D0004FEA03334CEA133302D0524263EB43033A
:1001E00094EA050F00F0A780A4F10104D5F1200ED8
:1001F0000DDB02FA0EFC22FA05F2801841F1000133
:1002000003FA0EF2801843FA05F359410EE0A5F106
:1002100020050EF1200E012A03FA0EFC28BF4CF037
:10022000020C43FA05F3C01851EBE37101F00045ED
:1002300007D54FF0000EDCF1000C7EEB00006EEBFA
:100240000101B1F5801F1BD3B1F5001F0CD3490884
:100250005FEA30004FEA3C0C04F101044FEA4452DB
:1002600012F5800F80F09A80BCF1004F08BF5FEA62
:10027000500C50F1000041EB045141EA050130BD42
:100280005FEA4C0C404141EB0101013C28BFB1F554
:10029000801FE9D291F0000F04BF01460020B1FA9F
:1002A00081F308BF2033A3F10B03B3F120020CDA72
:1002B0000C3208DD02F1140CC2F10C0201FA0CF050
:1002C00021FA02F10CE002F11402D8BFC2F1200CB5
:1002D00001FA02F120FA0CFCDCBF41EA0C0190406B
:1002E000E41AA2BF01EB0451294330BD6FEA0404B4
:1002F0001F3C1CDA0C340EDC04F11404C4F120029F
:1003000020FA04F001FA02F340EA030021FA04F3B0
:1003100045EA030130BDC4F10C04C4F1200220FA07
:1003200002F001FA04F340EA0300294630BD21FA45
:1003300004F0294630BD94F0000F83F4801306BF0B
:1003400081F480110134013D4EE77FEA645C18BFFF
:100350007FEA655C29D094EA050F08BF90EA020F96
:1003600005D054EA000C04BF1946104630BD91EA8E
:10037000030F1EBF0021002030BD5FEA545C05D191
:100380004000494128BF41F0004130BD14F58004D0
:100390003CBF01F5801130BD01F0004545F0FE4144
:1003A00041F470014FF0000030BD7FEA645C1ABF79
:1003B000194610467FEA655C1CBF0B46024650EAB0
:1003C000013406BF52EA033591EA030F41F40021DC
:1003D00030BD00BF90F0000F04BF0021704730B562
:1003E0004FF4806404F132044FF000054FF0000137
:1003F00050E700BF90F0000F04BF0021704730B5F8
:100400004FF4806404F1320410F0004548BF4042CC
:100410004FF000013EE700BF42004FEAE2014FEA21
:1004200031014FEA02701FBF12F07F4393F07F4FFC
:1004300081F06051704732F07F4208BF704793F0FF
:100440007F4F04BF41F40021704730B54FF4607412
:1004500001F0004521F000411CE700BF50EA010215
:1004600008BF704730B54FF000050AE050EA0102BE
:1004700008BF704730B511F0004502D5404261EB2E
:1004800041014FF4806404F132045FEA915C3FF46F
:10049000D8AE4FF003025FEADC0C18BF03325FEA0C
:1004A000DC0C18BF033202EBDC02C2F1200300FABD
:1004B00003FC20FA02F001FA03FE40EA0E0021FAE2
:1004C00002F11444BDE600BF70B54FF0FF0C4CF4D0
:1004D000E06C1CEA11541DBF1CEA135594EA0C0F82
:1004E00095EA0C0F00F0DEF82C4481EA030621EABD
:1004F0004C5123EA4C5350EA013518BF52EA0335F8
:1005000041F4801143F4801338D0A0FB02CE4FF0A9
:100510000005E1FB02E506F00042E0FB03E54FF0D9
:100520000006E1FB03569CF0000F18BF4EF0010ED1
:10053000A4F1FF04B6F5007F64F5407404D25FEACD
:100540004E0E6D4146EB060642EAC62141EA555180
:100550004FEAC52040EA5E504FEACE2EB4F1FD0CC2
:1005600088BFBCF5E06F1ED8BEF1004F08BF5FEA40
:10057000500E50F1000041EB045170BD06F00046F2
:1005800046EA010140EA020081EA0301B4EB5C049F
:10059000C2BFD4EB0C0541EA045170BD41F4801197
:1005A0004FF0000E013C00F3AB8014F1360FDEBFBC
:1005B000002001F0004170BDC4F10004203C35DA98
:1005C0000C341BDC04F11404C4F1200500FA05F31B
:1005D00020FA04F001FA05F240EA020001F00042BC
:1005E00021F0004110EBD37021FA04F642EB060132
:1005F0005EEA430E08BF20EAD37070BDC4F10C045C
:10060000C4F1200500FA04F320FA05F001FA04F21F
:1006100040EA020001F0004110EBD37041F100010B
:100620005EEA430E08BF20EAD37070BDC4F1200516
:1006300000FA05F24EEA020E20FA04F301FA05F27E
:1006400043EA020321FA04F001F0004121FA04F226
:1006500020EA020000EBD3705EEA430E08BF20EAF6
:10066000D37070BD94F0000F0FD101F00046400030
:1006700041EB010111F4801F08BF013CF7D041EAB2
:10068000060195F0000F18BF704703F000465200B6
:1006900043EB030313F4801F08BF013DF7D043EA87
:1006A0000603704794EA0C0F0CEA135518BF95EA3D
:1006B0000C0F0CD050EA410618BF52EA4306D1D1C4
:1006C00081EA030101F000414FF0000070BD50EAE3
:1006D000410606BF1046194652EA430619D094EA6D
:1006E0000C0F02D150EA013613D195EA0C0F05D157
:1006F00052EA03361CBF104619460AD181EA0301AB
:1007000001F0004141F0FE4141F470014FF0000062
:1007100070BD41F0FE4141F4780170BD70B54FF0FD
:10072000FF0C4CF4E06C1CEA11541DBF1CEA13557D
:1007300094EA0C0F95EA0C0F00F0A7F8A4EB05045F
:1007400081EA030E52EA03354FEA013100F0888056
:100750004FEA03334FF0805545EA131343EA12631F
:100760004FEA022245EA111545EA10654FEA0026D4
:100770000EF000419D4208BF964244F1FD0404F58D
:10078000407402D25B084FEA3202B61A65EB0305E9
:100790005B084FEA32024FF480104FF4002CB6EBA6
:1007A000020E75EB030E22BFB61A754640EA0C0026
:1007B0005B084FEA3202B6EB020E75EB030E22BF66
:1007C000B61A754640EA5C005B084FEA3202B6EBA7
:1007D000020E75EB030E22BFB61A754640EA9C0066
:1007E0005B084FEA3202B6EB020E75EB030E22BF36
:1007F000B61A754640EADC0055EA060E18D04FEAF4
:10080000051545EA16754FEA06164FEAC30343EA93
:1008100052734FEAC2025FEA1C1CC0D111F4801F60
:100820000BD141EA00014FF000004FF0004CB6E759
:1008300011F4801F04BF01430020B4F1FD0C88BFF8
:10084000BCF5E06F3FF6AFAEB5EB030C04BFB6EB03
:10085000020C5FEA500C50F1000041EB045170BDF6
:100860000EF0004E4EEA113114EB5C04C2BFD4EB23
:100870000C0541EA045170BD41F480114FF0000EA7
:10088000013C90E645EA060E8DE60CEA135594EA23
:100890000C0F08BF95EA0C0F3FF43BAF94EA0C0F26
:1008A0000AD150EA01347FF434AF95EA0C0F7FF49B
:1008B00025AF104619462CE795EA0C0F06D152EAEF
:1008C00003353FF4FDAE1046194622E750EA4106D3
:1008D00018BF52EA43067FF4C5AE50EA41047FF4E4
:1008E0000DAF52EA43057FF4EBAE12E74FEA410247
:1008F00012F5001215D211D56FF47873B3EB625272
:1009000012D94FEAC12343F0004343EA505311F098
:10091000004F23FA02F018BF404270474FF000002A
:10092000704750EA013005D111F0004008BF6FF068
:10093000004070474FF00000704700BF4A0011D2DE
:1009400012F5001211D20DD56FF47873B3EB625229
:100950000ED44FEAC12343F0004343EA505323FA35
:1009600002F070474FF00000704750EA013002D1AA
:100970004FF0FF3070474FF0000070474FEA4102E0
:10098000B2F1E04324BFB3F5001CDCF1FE5C0DD9ED
:1009900001F0004C4FEAC0024CEA5070B2F1004F37
:1009A00040EB830008BF20F00100704711F0804F3A
:1009B00021D113F13872BCBF01F00040704741F4FF
:1009C00080114FEA5252C2F11802C2F1200C10FA03
:1009D0000CF320FA02F018BF40F001004FEAC123E7
:1009E0004FEAD32303FA0CFC40EA0C0023FA02F38B
:1009F0004FEA4303CCE77FEA625307D150EA013361
:100A00001EBF4FF0FE4040F44000704701F0004030
:100A100040F0FE4040F40000704700BF80F000400E
:100A200002E000BF81F0004142001FBF5FEA4103C6
:100A300092EA030F7FEA226C7FEA236C6AD04FEAC6
:100A40001262D2EB1363C1BFD2184140484041400B
:100A5000B8BF5B42192B88BF704710F0004F40F4BD
:100A6000000020F07F4018BF404211F0004F41F4D9
:100A7000000121F07F4118BF494292EA030F3FD0A5
:100A8000A2F1010241FA03FC10EB0C00C3F12003B8
:100A900001FA03F100F0004302D5494260EB400047
:100AA000B0F5000F13D3B0F1807F06D340084FEAB2
:100AB000310102F10102FE2A51D2B1F1004F40EBA7
:100AC000C25008BF20F0010040EA0300704749000F
:100AD00040EB0000013A28BFB0F5000FEDD2B0FAAC
:100AE00080FCACF1080CB2EB0C0200FA0CF0AABFCF
:100AF00000EBC25052421843BCBFD040184370476D
:100B000092F0000F81F4000106BF80F40000013272
:100B1000013BB5E74FEA41037FEA226C18BF7FEA49
:100B2000236C21D092EA030F04D092F0000F08BF8B
:100B30000846704790EA010F1CBF0020704712F072
:100B40007F4F04D1400028BF40F00040704712F1B1
:100B500000723CBF00F50000704700F0004343F016
:100B6000FE4040F4000070477FEA226216BF08464C
:100B70007FEA23630146420206BF5FEA412390EA0F
:100B8000010F40F4800070474FF0000304E000BF05
:100B900010F0004348BF40425FEA000C08BF7047B6
:100BA00043F0964301464FF000001CE050EA01027A
:100BB00008BF70474FF000030AE000BF50EA01028F
:100BC00008BF704711F0004302D5404261EB41017C
:100BD0005FEA010C02BF84460146002043F0B643A1
:100BE00008BFA3F18053A3F50003BCFA8CF2083AC6
:100BF000A3EBC25310DB01FA02FC634400FA02FCCF
:100C0000C2F12002BCF1004F20FA02F243EB0200D5
:100C100008BF20F00100704702F1200201FA02FC37
:100C2000C2F1200250EA4C0021FA02F243EB02002A
:100C300008BF20EADC7070474FF0FF0C1CEAD0526E
:100C40001EBF1CEAD15392EA0C0F93EA0C0F6FD02F
:100C50001A4480EA010C400218BF5FEA41211ED00D
:100C60004FF0006343EA501043EA5111A0FB0131F9
:100C70000CF00040B1F5000F3EBF490041EAD371CE
:100C80005B0040EA010062F17F02FD2A1DD8B3F14A
:100C9000004F40EBC25008BF20F00100704790F0B9
:100CA000000F0CF0004C08BF49024CEA502040EA0B
:100CB00051207F3AC2BFD2F1FF0340EAC2507047D1
:100CC00040F400004FF00003013A5DDC12F1190F0F
:100CD000DCBF00F000407047C2F10002410021FA81
:100CE00002F1C2F1200200FA02FC5FEA310040F199
:100CF000000053EA4C0308BF20EADC70704792F012
:100D0000000F00F0004C02BF400010F4000F013A49
:100D1000F9D040EA0C0093F0000F01F0004C02BF44
:100D2000490011F4000F013BF9D041EA0C018FE7B3
:100D30000CEAD15392EA0C0F18BF93EA0C0F0AD0B9
:100D400030F0004C18BF31F0004CD8D180EA0100DF
:100D500000F00040704790F0000F17BF90F0004F78
:100D6000084691F0000F91F0004F14D092EA0C0F5A
:100D700001D142020FD193EA0C0F03D14B0218BFED
:100D8000084608D180EA010000F0004040F0FE4033
:100D900040F40000704740F0FE4040F440007047CF
:100DA0004FF0FF0C1CEAD0521EBF1CEAD15392EA4E
:100DB0000C0F93EA0C0F69D0A2EB030280EA010C3E
:100DC00049024FEA402037D04FF0805343EA1111D7
:100DD00043EA10130CF000408B4238BF5B0042F135
:100DE0007D024FF4000C8B4224BF5B1A40EA0C00DA
:100DF000B3EB510F24BFA3EB510340EA5C00B3EB0C
:100E0000910F24BFA3EB910340EA9C00B3EBD10FF9
:100E100024BFA3EBD10340EADC001B0118BF5FEA4B
:100E20001C1CE0D1FD2A3FF650AF8B4240EBC25074
:100E300008BF20F0010070470CF0004C4CEA502035
:100E40007F32C2BFD2F1FF0340EAC250704740F484
:100E500000004FF00003013A37E792F0000F00F076
:100E6000004C02BF400010F4000F013AF9D040EAF4
:100E70000C0093F0000F01F0004C02BF490011F488
:100E8000000F013BF9D041EA0C0195E70CEAD15380
:100E900092EA0C0F08D142027FF47DAF93EA0C0F67
:100EA0007FF470AF084676E793EA0C0F04D14B024B
:100EB0003FF44CAF08466EE730F0004C18BF31F0FD
:100EC000004CCAD130F000427FF45CAF31F00043F7
:100ED0007FF43CAF5FE700BF4FF0FF3C06E000BF90
:100EE0004FF0010C02E000BF4FF0010C4DF804CDB3
:100EF0004FEA40024FEA41037FEA226C18BF7FEAC3
:100F0000236C11D001B052EA530C18BF90EA010FC4
:100F100058BFB2EB030088BFC81738BF6FEAE17053
:100F200018BF40F0010070477FEA226C02D15FEAEF
:100F3000402C05D17FEA236CE4D15FEA412CE1D05B
:100F40005DF8040B704700BF844608466146FFE722
:100F50000FB5FFF7C9FF002848BF10F1000F0FBD04
:100F60004DF808EDFFF7F4FF0CBF012000205DF8FD
:100F700008FB00BF4DF808EDFFF7EAFF34BF012082
:100F800000205DF808FB00BF4DF808EDFFF7E0FF1B
:100F900094BF012000205DF808FB00BF4DF808ED6C
:100FA000FFF7D2FF94BF012000205DF808FB00BFCF
:100FB0004DF808EDFFF7C8FF34BF012000205DF8B1
:100FC00008FB00BF4FEA4002B2F1FE4F0FD34FF0D3
:100FD0009E03B3EB12620DD94FEA002343F00043A6
:100FE00010F0004F23FA02F018BF404270474FF054
:100FF0000000704712F1610F01D1420205D110F0DB
:10100000004008BF6FF0004070474FF0000070478D
:1010100042000ED2B2F1FE4F0BD34FF09E03B3EB62
:10102000126209D44FEA002343F0004323FA02F08E
:1010300070474FF00000704712F1610F01D142027A
:1010400002D14FF0FF3070474FF00000704700BFF3
:1010500090B585B000AF786013497868FFF7ECFD74
:1010600003461C4610497868FFF7E6FD034618461C
:10107000FFF7A8FF03461846FFF78AFD0346194607
:101080002046FFF7CFFC034607491846FFF788FEC6
:101090000346FB60F9687868FFF7C4FC034618460E
:1010A0001437BD4690BD00BF0000C84280B59CB05B
:1010B00000AF786039600023FB660DE0FB6E9B009B
:1010C0007A6813441A68FB6E9B0070333B4443F804
:1010D000642CFB6E0133FB66FA6E3B689A42EDDBD3
:1010E0000023BB663EE0BB6E7B66BB6E01333B6696
:1010F00017E03B6E9B0070333B4453F8642C7B6ECF
:101100009B0070333B4453F8643C19461046FFF78C
:1011100031FF0346002B01D03B6E7B663B6E0133F3
:101120003B663A6E3B689A42E3DBBB6E9B007033D2
:101130003B4453F8643CFB657B6E9B0070333B443F
:1011400053F8642CBB6E9B0070333B4443F8642C13
:101150007B6E9B0070333B44FA6D43F8642CBB6E8E
:101160000133BB663B68DA0F13445B101A46BB6E53
:101170009342B8DD3B68DA0F13445B109B00703379
:101180003B4453F8643C18467037BD4680BD0000B0
:101190002DE9B04F8AB000AF00F056FF00F054F9CF
:1011A00000F008FB00F0EAF900F0B0FA00F03AFABB
:1011B00000F0A6F9924801F0B2FC1021904801F02D
:1011C000E2FE0C218F4803F027F94FF08043002204
:1011D0001A648D4B1B781A4610218C4802F0AEFB26
:1011E0003C218B4803F05CFA8A4801F08BF88A4B6B
:1011F00000229A60884B0022DA60874B40F25352FB
:101200001A604FF07F53FB613B4600221A605A6020
:101210009A60DA601A6100237B62052000F076FF95
:1012200072B600BF7D4B1B889BB21846FFF7E2F8F1
:101230006BA3D3E90023FEF791FF02460B4610464D
:10124000194669A3D3E90023FFF768FA02460B4663
:1012500092469B46F869FFF7DFF802460B46504678
:101260005946FFF731F902460B461046194660A36E
:10127000D3E90023FEF770FF02460B4610461946DD
:10128000FFF77CFB0346BB61B869FFF7C5F85AA3BB
:10129000D3E90023FFF742FA02460B4610461946EF
:1012A000FFF76CFB03467B615D4B1B681846FFF73D
:1012B0006FFC034619467869FFF77AFE0346002B58
:1012C00023D0554B01221A61564BFA221A70002284
:1012D0004FF48061544802F031FB4FF0804300220C
:1012E0001A6400221021494802F028FB40F6B83069
:1012F00000F00CFF4D4B4B4A4749414801F053FC6D
:101300000346002B01D000F0C3FC494B1B687969F0
:101310001846FFF789FB03461A46454B1A603F4BB8
:101320001B889BB29BB200221C461546414BD3E959
:10133000002314EB020845EB03093E4BC3E9008987
:101340003D4B1B6801333C4A13603B4B1B68322BFF
:1013500042D1374B1B6839491846FFF721FD034638
:101360003B62386AFFF774FE38624FF00001386A5A
:10137000FFF700FE0346002B02D04FF000033B6254
:101380002D4B00221A602A4B4FF000021A602949A7
:101390004FF000024FF00003C1E900237B6A9B007D
:1013A00028333B443A6A43F8282C7B6A01337B623A
:1013B0007A6A234B83FB02135910D317C91A0B46C1
:1013C0009B000B44D31A7B623B4605211846FFF76E
:1013D0006DFE03461B4A136062B600BF1DE700BFE7
:1013E000AAF1D24D626851409CC420B072859340EE
:1013F0004A0C022B871604409A9999999999B93FFA
:10140000640000208C0000207B01002000080140C7
:10141000D400002034000020380100209401002076
:101420000400002058010020000C01406001002051
:1014300088010020800100208C010020000048422B
:10144000676666669001002080B594B000AF07F132
:10145000280328220021184603F076FF07F1140321
:1014600000221A605A609A60DA601A613B1D0022FD
:101470001A605A609A60DA600123BB624FF48033CD
:10148000FB6200233B630123BB6302237B644FF4B5
:101490008033BB644FF4E013FB6407F12803184664
:1014A00002F07EFA0346002B01D000F0F1FB0F237F
:1014B0007B610223BB610023FB614FF480633B62CD
:1014C00000237B6207F114030221184602F0EAFCB4
:1014D0000346002B01D000F0DBFB02237B604FF4BE
:1014E0000043FB603B1D184602F038FE0346002B0C
:1014F00001D000F0CDFB00BF5037BD4680BD0000DD
:1015000080B584B000AF3B1D00221A605A609A601B
:10151000184B194A1A60174B00229A60154B01228A
:101520001A73144B00221A75124B4FF46022DA61C1
:10153000104B00225A600F4B01221A610D4800F037
:1015400009FE0346002B01D000F0A2FB05237B60BF
:101550000123BB600023FB603B1D1946054800F0DA
:1015600087FF0346002B01D000F092FB00BF10372D
:10157000BD4680BD340000200024014080B58AB003
:1015800000AF264B264A1A60244B04225A60234B94
:1015900000229A60214B0022DA60204B4FF4502247
:1015A0001A611E4B4FF400125A611C4B00221A762E
:1015B0001A4B00225A76194B00229A76174B0022BA
:1015C000DA76164B00221A77144B00225A7713480A
:1015D00001F0E1F80346002B01D000F059FB012394
:1015E0003B620A237B6101233B6148F6A0433B60D9
:1015F00000237B604FF6E073BB600023FB60002399
:10160000BB610123FB6100237B623B461946034813
:1016100001F0BCF900BF2837BD4680BD6400002042
:101620000064004080B58EB000AF07F128030022AF
:101630001A605A609A60DA6007F1200300221A608B
:101640005A603B1D00221A605A609A60DA601A6183
:101650005A619A612C4B4FF080421A602A4B11223A
:101660005A60294B00229A60274BFE22DA60264BF3
:1016700000221A61244B00229A61234802F024FEC2
:101680000346002B01D000F003FB4FF48053BB62F4
:1016900007F1280319461C4803F042FA0346002BC1
:1016A00001D000F0F5FA184802F05DFE0346002B69
:1016B00001D000F0EDFA00233B6200237B6207F1CA
:1016C00020031946104803F0CFFD0346002B01D03C
:1016D00000F0DEFA60237B600023BB600023FB6028
:1016E00000237B613B1D0C221946074803F056F985
:1016F0000346002B01D000F0CBFA034800F0F2FBC8
:1017000000BF3837BD4680BD8C00002080B58CB04E
:1017100000AF07F10C0324220021184603F014FE49
:101720003B1D00221A605A60204B214A1A601F4B51
:1017300000225A601D4B00229A601C4B40F6D86272
:10174000DA601A4B00221A61184B80229A61032337
:10175000FB6000233B6101237B610023BB610A2303
:10176000FB6100233B6201237B620023BB620023F9
:10177000FB6207F10C0319460C4802F0EFFE03462A
:10178000002B01D000F084FA00237B600023BB60B3
:101790003B1D1946054803F067FD0346002B01D0A9
:1017A00000F076FA00BF3037BD4680BDD40000207F
:1017B0000008004080B588B000AF07F11003002298
:1017C0001A605A609A60DA60384B9B69374A43F076
:1017D00010039361354B9B6903F01003FB60FB68BA
:1017E000324B9B69314A43F0200393612F4B9B6935
:1017F00003F02003BB60BB682C4B9B692B4A43F072
:1018000004039361294B9B6903F004037B607B68AD
:10181000264B9B69254A43F008039361234B9B6940
:1018200003F008033B603B6800224FF4005120485E
:1018300002F084F8002210211E4802F07FF80022F6
:101840004FF480611C4802F079F84FF400533B617B
:1018500001237B610023BB610223FB6107F11003BD
:101860001946134801F0E6FE10233B6101237B611A
:101870000023BB610223FB6107F1100319460D48E9
:1018800001F0D8FE4FF480633B6101237B610023AC
:10189000BB610223FB6107F110031946064801F002
:1018A000C9FE00BF2037BD4680BD00BF001002400A
:1018B0000010014000080140000C01400000000041
:1018C00090B587B000AF7860484B494A01217868ED
:1018D00001F038FA0346002B01D000F0D9F9434B50
:1018E0001B785B09FB75FB7D5B015AB23F4B1B7894
:1018F0005BB253405BB2BB753D4B1B69032B40F0A1
:101900007281BB7D032B40F06E8101224FF4806118
:10191000384802F013F8384B1B78FA7D9A4240F0B1
:101920004681324B5A78354B1A70304B9A78344B8B
:101930001A70324B1A784FF080431A64304B1B7880
:101940001A4610212F4801F0F9FF2F4B08221A6187
:101950002E4B5B6A2E4A13602D4B1A682D4B1B6869
:101960009A4203D12C4B00221A806AE0284B1A6855
:10197000284B1B689A4226D9284B1B681B6803F02A
:101980001003102B13D1234B1B689BB25B429AB2FE
:10199000224B1B68DB6A9BB2D31A9AB21C4B1B68A2
:1019A0009BB213449BB21AB21B4B1A8049E0184BEE
:1019B0001B689AB2174B1B689BB2D31A9BB21AB220
:1019C000154B1A803DE0154B1B681B6803F0100394
:1019D000102B25D10E4B1B689AB20E4B1B689BB285
:1019E000D31A9BB21AB20C4B1A802AE05001002085
:1019F0001C010020000C0140000000207A010020A2
:101A00007B01002000080140380100200008004050
:101A1000680100206C01002070010020D40000202B
:101A2000894B1B68DB6A9AB2884B1B689BB21344D4
:101A30009AB2874B1B689BB2D31A9BB21AB2854BE2
:101A40001A80844BB3F900301A46834B1B68134449
:101A5000814A13607D4B1B687D4A13607E4B1B6877
:101A60001B0E7B757C4B1B681B143B757A4B1B68EC
:101A70001B12FB74784B1B68BB74744B1B681846B5
:101A8000FEF7A8FC6CA3D3E90023FEF71DFD024678
:101A90000B46104619466AA3D3E90023FEF73EFE23
:101AA00002460B461046194603F07AFC02460B46E6
:101AB00010461946FEF71AFF03461AB2674B1A8002
:101AC000664BB3F900301B121BB27B74634BB3F946
:101AD00000303B745F4BB3F900301B121BB2FB7339
:101AE0005C4BB3F90030BB735D4A7B7D13705C4A7D
:101AF0003B7D53705A4AFB7C9370594ABB7CD37030
:101B0000574A7B7C1371564A3B7C5371544AFB7B8A
:101B10009371534ABB7BD371524B514A524953483C
:101B200001F041F80346002B01D000F0B1F84E4B14
:101B300002221A614E4B1B681846FFF769FA0346EA
:101B4000DAB2474B1A704A4B1C68494B1B6818465F
:101B5000FFF738FA03461846FFF71AF80346194606
:101B60002046FEF75FFF03461846FEF755FC4FF090
:101B70000002404BFEF7A8FC02460B4610461946F1
:101B8000FEF7DCFE0346DAB2354B5A70354B344A69
:101B90003549364801F007F80346002B01D000F024
:101BA00077F84FF40051344801F0E0FE1BE0334B6E
:101BB0001B78FA7D9A4216D12B4B01221A61284BD1
:101BC000FF221A7000224FF480612D4801F0B6FE0A
:101BD000244B234A2449254800F0E5FF0346002B07
:101BE00001D000F055F8274B1B69012B1ED1BB7D9E
:101BF000032B1BD1244B1B78FA7D9A4216D11A4B2A
:101C000001221A61214B1A78154B1A704FF40051BA
:101C1000194801F0ABFE134B114A1349134800F069
:101C2000C2FF0346002B01D000F032F800BF1C3782
:101C3000BD4690BDAFF30080000000000020AC4026
:101C40000000000000B0AD40D4000020680100207A
:101C50006C01002070010020740100207801002038
:101C6000580100206001002038010020640000209D
:101C700090010020000059400010014001000020A8
:101C8000000C01401C0100206401002050010020D4
:101C900080B400AF72B600BF00BFFDE780B485B06E
:101CA00000AF154B9B69144A43F001039361124B3B
:101CB0009B6903F00103BB60BB680F4BDB690E4AF5
:101CC00043F08053D3610C4BDB6903F080537B609E
:101CD0007B680A4B5B68FB60FB6823F0E063FB609A
:101CE000FB6843F00073FB60044AFB68536000BF6D
:101CF0001437BD4680BC7047001002400000014010
:101D000080B588B000AF786007F1100300221A6038
:101D10005A609A60DA607B681B68144A934221D14A
:101D2000134B9B69124A43F400739361104B9B69F8
:101D300003F40073FB60FB680D4B9B690C4A43F096
:101D4000040393610A4B9B6903F00403BB60BB6807
:101D500020233B6103237B6107F1100319460548EB
:101D600001F068FC00BF2037BD4680BD0024014063
:101D7000001002400008014080B588B000AF7860D4
:101D800007F1100300221A605A609A60DA607B68DB
:101D90001B68204A934239D11F4BDB691E4A43F02E
:101DA0000073D3611C4BDB6903F00073FB60FB68BD
:101DB000194B9B69184A43F004039361164B9B69C6
:101DC00003F00403BB60BB684FF400633B61002376
:101DD0007B610023BB6107F1100319460F4801F036
:101DE00029FC4FF480533B6102237B610323FB6199
:101DF00007F110031946094801F01CFC00220021DC
:101E0000152001F0E0FB152001F0F9FB00BF2037A1
:101E1000BD4680BD00640040001002400008014043
:101E200080B485B000AF78607B681B68B3F1804FE9
:101E30000BD1084BDB69074A43F00103D361054B23
:101E4000DB6903F00103FB60FB6800BF1437BD468C
:101E500080BC70470010024080B588B000AF786049
:101E600007F1100300221A605A609A60DA607B68FA
:101E70001B68194A93422BD1184BDB69174A43F070
:101E80000403D361154BDB6903F00403FB60FB68BB
:101E9000124B9B69114A43F0080393610F4B9B69F6
:101EA00003F00803BB60BB68C0233B6100237B6178
:101EB0000023BB6107F110031946094801F0BAFB82
:101EC000002200211E2001F07EFB1E2001F097FB66
:101ED00000BF2037BD4680BD000800400010024012
:101EE000000C014080B588B000AF786007F10C03AA
:101EF00000221A605A609A60DA607B681B68B3F14E
:101F0000804F2AD1174B9B69164A43F0080393610F
:101F1000144B9B6903F00803BB60BB684FF400637C
:101F2000FB6002233B610223BB6107F10C031946EE
:101F30000D4801F07FFB0D4B5B68FB61FB6923F4EF
:101F40004073FB61FB6943F0E063FB61FB6943F4B1
:101F50000073FB61054AFB69536000BF2037BD4633
:101F600080BD00BF00100240000C01400000014095
:101F700080B400AF00BFFDE780B400AF00BFFDE755
:101F800080B400AF00BFFDE780B400AF00BFFDE745
:101F900080B400AF00BFFDE780B400AF00BFBD4616
:101FA00080BC704780B400AF00BFBD4680BC7047A6
:101FB00080B400AF00BFBD4680BC704780B500AFA5
:101FC00000F088F800BF80BD80B500AF024800F087
:101FD000FFFF00BF80BD00BF6400002080B500AFE0
:101FE000024802F0EBFB00BF80BD00BFD400002020
:101FF00080B400AF00BFBD4680BC7047FFF7F8FF5C
:102000000B480C490C4A002302E0D458C450043356
:10201000C4188C42F9D3094A094C002301E013602B
:102020000432A242FBD303F097F9FFF7B1F87047EF
:102030000000002014000020705400081800002048
:102040009C010020FEE7000080B500AF084B1B6834
:10205000074A43F010031360032001F0A9FA0F2090
:1020600000F008F8FFF71AFE0023184680BD00BFF5
:102070000020024080B582B000AF7860124B1A6831
:10208000124B1B7819464FF47A73B3FBF1F3B2FB92
:10209000F3F3184601F0C1FA0346002B01D00123E7
:1020A0000EE07B680F2B0AD8002279684FF0FF30D2
:1020B00001F089FA064A7B681360002300E00123DF
:1020C00018460837BD4680BD0800002010000020DB
:1020D0000C00002080B400AF054B1B781A46054B5E
:1020E0001B681344034A136000BFBD4680BC7047A1
:1020F000100000209801002080B400AF024B1B6844
:102100001846BD4680BC70479801002080B584B059
:1021100000AF7860FFF7F0FFB8607B68FB60FB689A
:10212000B3F1FF3F05D00A4B1B781A46FB681344F6
:10213000FB6000BFFFF7E0FF0246BB68D31AFA68F6
:102140009A42F7D800BF00BF1037BD4680BD00BF20
:102150001000002080B586B000AF78600023FB75CA
:1021600000233B610023BB600023FB607B68002BE6
:1021700001D10123BEE07B689B68002B7B689B6AD2
:10218000002B09D17B680022DA627B68002283F889
:1021900024207868FFF7B4FD786800F0BBFA0346A6
:1021A000FB757B689B6A03F01003002B40F099805D
:1021B000FB7D002B40F095807B689B6A23F488535D
:1021C00023F0020343F002027B689A627B685A683C
:1021D0007B68DB691A437B681B7B5B001343BA682F
:1021E0001343BB607B689B68B3F5807F03D07B683B
:1021F0009B68012B02D14FF4807300E000233A6901
:1022000013433B617B681B7D012B19D17B681B7BD2
:10221000002B09D17B689B69013B5A033B6913433F
:1022200043F400633B610BE07B689B6A43F0200250
:102230007B689A627B68DB6A43F001027B68DA6242
:102240007B681B685B6823F469417B681B683A699B
:102250000A435A607B681B689A68284B13407A6867
:102260001268B9680B4393607B689B68B3F5807F05
:1022700003D07B689B68012B04D17B681B69013B01
:102280001B05FB607B681B68DB6A23F470017B68BD
:102290001B68FA680A43DA627B681B689A68184B05
:1022A0001340BA689A420BD17B680022DA627B68DD
:1022B0009B6A23F0030343F001027B689A6218E0F3
:1022C0007B689B6A23F0120343F010027B689A62DA
:1022D0007B68DB6A43F001027B68DA620123FB75ED
:1022E00007E07B689B6A43F010027B689A620123D7
:1022F000FB75FB7D18461837BD4680BDFDF7E1FF35
:10230000FE0E1FFF80B584B000AF78600023FB7322
:102310007B6893F82430012B01D10223A0E07B6875
:10232000012283F82420786800F09AF90346FB73B1
:10233000FB7B002B40F08F807B689B6A23F47063EB
:1023400023F0010343F480727B689A627B681B6808
:10235000454A934205D1454B5B6803F47023002B3B
:1023600015D17B689B6A23F480127B689A627B6834
:102370001B685B6803F48063002B26D07B689B6A34
:1023800023F4405343F480527B689A621DE07B68DB
:102390009B6A43F480127B689A627B681B68334AAD
:1023A000934204D07B681B682F4A93420DD12F4B78
:1023B0005B6803F48063002B07D07B689B6A23F47F
:1023C000405343F480527B689A627B689B6A03F4B3
:1023D0008053002B06D07B68DB6A23F006027B6803
:1023E000DA6202E07B680022DA627B68002283F80E
:1023F00024207B681B686FF002021A607B681B68F0
:102400005A687B681B6842F020025A607B681B6830
:102410009B6803F46023B3F5602F13D17B681B68BE
:10242000114A934205D1114B5B6803F47023002BD2
:1024300008D17B681B689A687B681B6842F4A0021D
:102440009A600CE07B681B689A687B681B6842F4A2
:1024500080129A6003E07B68002283F82420FB7BD3
:1024600018461037BD4680BD0028014000240140B9
:1024700080B485B000AF786039600023FB7300231F
:10248000BB607B6893F82430012B01D10223DCE090
:102490007B68012283F824203B685B68062B1CD8EC
:1024A0007B681B68596B3B685A6813469B00134452
:1024B000053B1F2202FA03F3DB4319403B6818680F
:1024C0003B685A6813469B001344053B00FA03F22D
:1024D0007B681B680A435A633CE03B685B680C2BD3
:1024E0001CD87B681B68196B3B685A6813469B00B5
:1024F0001344233B1F2202FA03F3DB4319403B68DA
:1025000018683B685A6813469B001344233B00FA43
:1025100003F27B681B680A431A631BE07B681B6835
:10252000D96A3B685A6813469B001344413B1F22FB
:1025300002FA03F3DB4319403B6818683B685A68AA
:1025400013469B001344413B00FA03F27B681B686F
:102550000A43DA623B681B68092B1CD97B681B683D
:10256000D9683B681A6813465B0013441E3B072278
:1025700002FA03F3DB4319403B6898683B681A682A
:1025800013465B0013441E3B00FA03F27B681B6892
:102590000A43DA6019E07B681B6819693B681A68AE
:1025A00013465B001344072202FA03F3DB4319408E
:1025B0003B6898683B681A6813465B00134400FA4E
:1025C00003F27B681B680A431A613B681B68102B87
:1025D00003D03B681B68112B32D17B681B681D4AF6
:1025E000934225D17B681B689B6803F40003002B92
:1025F00026D17B681B689A687B681B6842F40002DE
:102600009A603B681B68102B1AD1134B1B68134A46
:10261000A2FB03239A0C13469B0013445B00BB6090
:1026200002E0BB68013BBB60BB68002BF9D107E04F
:102630007B689B6A43F020027B689A620123FB73EC
:102640007B68002283F82420FB7B18461437BD46A4
:1026500080BC7047002401400800002083DE1B433B
:1026600080B584B000AF78600023FB600023BB60BE
:102670007B681B689B6803F00103012B40D07B68DB
:102680001B689A687B681B6842F001029A601F4BC6
:102690001B681F4AA2FB03239B0CBB6002E0BB68C4
:1026A000013BBB60BB68002BF9D1FFF725FDF8604B
:1026B0001FE0FFF721FD0246FB68D31A022B18D951
:1026C0007B681B689B6803F00103012B11D07B68BA
:1026D0009B6A43F010027B689A627B68DB6A43F076
:1026E00001027B68DA627B68002283F824200123E0
:1026F00007E07B681B689B6803F00103012BD8D1BE
:10270000002318461037BD4680BD00BF08000020DA
:1027100083DE1B4380B584B000AF78600023FB608C
:102720007B681B689B6803F00103012B2ED17B683B
:102730001B689A687B681B6822F001029A60FFF7A9
:10274000DBFCF8601BE0FFF7D7FC0246FB68D31AFE
:10275000022B14D97B681B689B6803F00103012BD3
:102760000DD17B689B6A43F010027B689A627B689C
:10277000DB6A43F001027B68DA62012307E07B68D1
:102780001B689B6803F00103012BDCD00023184673
:102790001037BD4680BD80B584B000AF78607B68DF
:1027A000002B01D10123EDE07B6893F82030DBB2F0
:1027B000002B02D17868FFF7DFFA7B681B681A6884
:1027C0007B681B6842F001021A60FFF795FCF86015
:1027D00012E0FFF791FC0246FB68D31A0A2B0BD9D3
:1027E0007B685B6A43F400327B685A627B6805222F
:1027F00083F820200123C5E07B681B685B6803F039
:102800000103002BE5D07B681B681A687B681B6896
:1028100022F002021A60FFF76FFCF86012E0FFF787
:102820006BFC0246FB68D31A0A2B0BD97B685B6AE8
:1028300043F400327B685A627B68052283F82020CB
:1028400001239FE07B681B685B6803F00203002B99
:10285000E5D17B681B7E012B08D17B681B681A6859
:102860007B681B6842F080021A6007E07B681B6887
:102870001A687B681B6822F080021A607B685B7EA6
:10288000012B08D17B681B681A687B681B6842F0C3
:1028900040021A6007E07B681B681A687B681B6847
:1028A00022F040021A607B689B7E012B08D17B6876
:1028B0001B681A687B681B6842F020021A6007E0F8
:1028C0007B681B681A687B681B6822F020021A600C
:1028D0007B68DB7E012B08D17B681B681A687B68EC
:1028E0001B6822F010021A6007E07B681B681A68F8
:1028F0007B681B6842F010021A607B681B7F012B0B
:1029000008D17B681B681A687B681B6842F0080264
:102910001A6007E07B681B681A687B681B6822F0F6
:1029200008021A607B685B7F012B08D17B681B68FB
:102930001A687B681B6842F004021A6007E07B6833
:102940001B681A687B681B6822F004021A607B68A7
:102950009A687B68DB681A437B681B691A437B684B
:102960005B6942EA03017B685B685A1E7B681B68EF
:102970000A43DA617B6800225A627B68012283F88D
:102980002020002318461037BD4680BD80B487B094
:1029900000AF786039607B681B687B617B6893F867
:1029A0002030FB74FB7C012B03D0FB7C022B40F01E
:1029B000AA807B69D3F8003243F001027B69C3F837
:1029C00000223B685B6903F01F03012202FA03F354
:1029D000FB607B69D3F81C22FB68DB431A407B69F0
:1029E000C3F81C223B68DB69002B23D17B69D3F839
:1029F0000C22FB68DB431A407B69C3F80C223B685E
:102A0000DB6819043B685B689BB23A6852691943FA
:102A10007B69483243F832103B689B6819043B6875
:102A20001B689AB23B685B690A4379694833DB00EB
:102A30000B445A603B68DB69012B22D17B69D3F8D8
:102A40000C22FB681A437B69C3F80C223B681B68A5
:102A500019043B685B689BB23A68526919437B6909
:102A6000483243F832103B689B6819043B68DB68C6
:102A70009AB23B685B690A4379694833DB000B44CF
:102A80005A603B689B69002B09D17B69D3F804220B
:102A9000FB68DB431A407B69C3F8042207E07B69CB
:102AA000D3F80422FB681A437B69C3F804223B680D
:102AB0001B69002B09D17B69D3F81422FB68DB4327
:102AC0001A407B69C3F8142207E07B69D3F814220B
:102AD000FB681A437B69C3F814223B681B6A012B0D
:102AE00007D17B69D3F81C22FB681A437B69C3F8C2
:102AF0001C227B69D3F8003223F001027B69C3F802
:102B00000022002306E07B685B6A43F480227B6836
:102B10005A62012318461C37BD4680BC704780B5F9
:102B200084B000AF78607B6893F82030DBB2012B73
:102B30002ED17B68022283F820207B681B681A68EC
:102B40007B681B6822F001021A60FFF7D5FAF86073
:102B500012E0FFF7D1FA0246FB68D31A0A2B0BD911
:102B60007B685B6A43F400327B685A627B680522AB
:102B700083F82020012312E07B681B685B6803F068
:102B80000103002BE5D17B6800225A62002306E096
:102B90007B685B6A43F400227B685A620123184613
:102BA0001037BD4680BD80B489B000AFF860B96011
:102BB0007A603B60FB6893F82030FB77FB681B680A
:102BC0009B68BB61FB7F012B03D0FB7F022B40F096
:102BD000AD80BB6903F08063002B0AD1BB6903F0B1
:102BE0000063002B05D1BB6903F08053002B00F07C
:102BF0009580BB691B0E03F003037B6101227B6997
:102C00009A403B681A60BB689B68002B0DD1BB687B
:102C10001B685A05BB68DB68F96809681A437B6959
:102C200018331B010B441A600FE0BB685B68DA00C5
:102C3000BB689B681A43BB68DB68F96809681A437C
:102C40007B6918331B010B441A60FB681968BB6869
:102C50001A697B6918331B010B4404331A60BB6883
:102C60001B7D012B11D1FB681A687B6918331B018E
:102C7000134404331B68FA68116843F480727B695B
:102C800018331B010B4404331A607B6807331B782D
:102C90001A067B6806331B781B041A437B680533CE
:102CA0001B781B0213437A68043212781046FA68C4
:102CB000116843EA00027B691B010B4403F5C673EC
:102CC0001A607B6803331B781A067B6802331B7813
:102CD0001B041A437B6801331B781B0213437A6879
:102CE00012781046FA68116843EA00027B691B01FA
:102CF0000B4403F5C4731A60FB681A687B691833C8
:102D00001B0113441B68FA68116843F001027B69D8
:102D100018331B010B441A6000230EE0FB685B6A4A
:102D200043F40012FB685A62012306E0FB685B6A09
:102D300043F48022FB685A62012318462437BD46BB
:102D400080BC704780B487B000AFF860B9607A602B
:102D50003B60FB6893F82030FB75FB7D012B03D0B3
:102D6000FB7D022B40F00381BB68002B0ED1FB687A
:102D70001B68DB6803F00303002B16D1FB685B6A5A
:102D800043F40012FB685A620123F7E0FB681B68FA
:102D90001B6903F00303002B07D1FB685B6A43F454
:102DA0000012FB685A620123E8E0FB681A68BB68FE
:102DB0001B331B0113441B6803F004027B689A60F9
:102DC0007B689B68002B0CD1FB681A68BB681B33BF
:102DD0001B0113441B685B0DC3F30A027B681A6076
:102DE0000BE0FB681A68BB681B331B0113441B68AC
:102DF000DB0823F060427B685A60FB681A68BB6896
:102E00001B331B0113441B6803F002027B68DA606A
:102E1000FB681A68BB681B331B01134404331B682F
:102E200003F00803002B03D07B6808221A610BE033
:102E3000FB681A68BB681B331B01134404331B680F
:102E400003F00F027B681A61FB681A68BB681B33CA
:102E50001B01134404331B681B0ADAB27B689A61B6
:102E6000FB681A68BB681B331B01134404331B68DF
:102E70001B0C9AB27B685A61FB681A68BB681B011D
:102E8000134403F5DC731B68DAB23B681A70FB6805
:102E90001A68BB681B01134403F5DC731B681A0A2C
:102EA0003B680133D2B21A70FB681A68BB681B0119
:102EB000134403F5DC731B681A0C3B680233D2B26F
:102EC0001A70FB681A68BB681B01134403F5DC73B6
:102ED0001B681A0E3B680333D2B21A70FB681A687B
:102EE000BB681B01134403F5DE731A683B680433A7
:102EF000D2B21A70FB681A68BB681B01134403F551
:102F0000DE731B681A0A3B680533D2B21A70FB687D
:102F10001A68BB681B01134403F5DE731B681A0CA7
:102F20003B680633D2B21A70FB681A68BB681B0193
:102F3000134403F5DE731B681A0E3B680733D2B2E5
:102F40001A70BB68002B08D1FB681B68DA68FB6845
:102F50001B6842F02002DA6007E0FB681B681A6910
:102F6000FB681B6842F020021A61002306E0FB6840
:102F70005B6A43F48022FB685A62012318461C37BF
:102F8000BD4680BC704780B485B000AF78603960C2
:102F90007B6893F82030FB73FB7B012B02D0FB7B1B
:102FA000022B09D17B681B6859697B681B683A68EA
:102FB0000A435A61002306E07B685B6A43F480227F
:102FC0007B685A62012318461437BD4680BC70479F
:102FD00080B58AB000AF786000237B627B681B6895
:102FE0005B693B627B681B685B68FB617B681B6895
:102FF0009B68BB617B681B68DB687B617B681B68C7
:103000001B693B617B681B689B69FB603B6A03F043
:103010000103002B7CD0BB6903F00103002B23D0FC
:103020007B681B6801229A60BB6903F00203002BD6
:1030300003D0786800F083F916E0BB6903F004035D
:10304000002B04D07B6A43F400637B620CE0BB6915
:1030500003F00803002B04D07B6A43F480537B62A7
:1030600002E0786800F086F9BB6903F48073002BF6
:1030700024D07B681B684FF480729A60BB6903F4AC
:103080000073002B03D0786800F062F916E0BB698A
:1030900003F48063002B04D07B6A43F400537B620B
:1030A0000CE0BB6903F40063002B04D07B6A43F49B
:1030B00080437B6202E0786800F065F9BB6903F445
:1030C0008033002B24D07B681B684FF480329A60D9
:1030D000BB6903F40033002B03D0786800F041F99A
:1030E00016E0BB6903F48023002B04D07B6A43F411
:1030F00000437B620CE0BB6903F40023002B04D087
:103100007B6A43F480337B6202E0786800F044F924
:103110003B6A03F00803002B0CD07B6903F010031B
:10312000002B07D07B6A43F400737B627B681B68CB
:103130001022DA603B6A03F00403002B0BD07B699A
:1031400003F00803002B06D07B681B680822DA60B6
:10315000786800F033F93B6A03F00203002B09D0D2
:103160007B681B68DB6803F00303002B02D07868E0
:1031700000F01BF93B6A03F04003002B0CD03B69C5
:1031800003F01003002B07D07B6A43F480637B625B
:103190007B681B6810221A613B6A03F02003002B36
:1031A0000BD03B6903F00803002B06D07B681B683B
:1031B00008221A61786800F00AF93B6A03F01003EC
:1031C000002B09D07B681B681B6903F00303002BED
:1031D00002D07868FEF774FB3B6A03F40033002BDF
:1031E0000BD0FB6903F01003002B06D07B681B6833
:1031F00010225A60786800F0F3F83B6A03F48033D9
:10320000002B0BD0FB6903F00803002B06D07B6872
:103210001B6808225A60786800F0EBF83B6A03F4F8
:103220000043002B7BD0FB6903F00403002B72D01A
:103230003B6A03F48073002B08D0FB6803F00103A2
:10324000002B03D07B6A43F001037B623B6A03F4EB
:103250000073002B08D0FB6803F00203002B03D09F
:103260007B6A43F002037B623B6A03F48063002BBA
:1032700008D0FB6803F00403002B03D07B6A43F003
:1032800004037B623B6A03F40063002B43D0FB68BA
:1032900003F07003002B3ED0FB6803F07003602B3B
:1032A0002BD0602B2ED8502B22D0502B2AD8402B3D
:1032B00019D0402B26D8302B10D0302B22D8102BF1
:1032C00002D0202B05D01DE07B6A43F008037B620F
:1032D00019E07B6A43F010037B6214E07B6A43F0E1
:1032E00020037B620FE07B6A43F040037B620AE0CD
:1032F0007B6A43F080037B6205E07B6A43F4807362
:103300007B6200E000BF7B681B689A697B681B6872
:1033100022F070029A617B681B6804225A607B6A03
:10332000002B08D07B685A6A7B6A1A437B685A6212
:10333000786800F067F800BF2837BD4680BD80B4CC
:1033400083B000AF786000BF0C37BD4680BC7047CB
:1033500080B483B000AF786000BF0C37BD4680BC3E
:10336000704780B483B000AF786000BF0C37BD46B3
:1033700080BC704780B483B000AF786000BF0C376A
:10338000BD4680BC704780B483B000AF786000BF9A
:103390000C37BD4680BC704780B483B000AF786006
:1033A00000BF0C37BD4680BC704780B483B000AF0F
:1033B000786000BF0C37BD4680BC704780B483B0D6
:1033C00000AF786000BF0C37BD4680BC704780B44A
:1033D00083B000AF786000BF0C37BD4680BC70473B
:1033E00080B483B000AF786000BF0C37BD4680BCAE
:1033F000704780B483B000AF786000BF0C37BD4623
:1034000080BC704780B483B000AF786000BF0C37D9
:10341000BD4680BC7047000080B485B000AF7860C6
:103420007B6803F00703FB600C4BDB68BB60BA688A
:103430004FF6FF031340BB60FB681A02BB681343DF
:1034400043F0BF6343F40033BB60044ABB68D360FE
:1034500000BF1437BD4680BC704700BF00ED00E0E0
:1034600080B400AF044BDB681B0A03F00703184667
:10347000BD4680BC704700BF00ED00E080B483B063
:1034800000AF0346FB7197F90730002B0BDBFB798C
:1034900003F01F02064997F907305B09012000FA83
:1034A00002F241F8232000BF0C37BD4680BC7047B4
:1034B00000E100E080B483B000AF03463960FB71E7
:1034C00097F90730002B0ADB3B68DAB20C4997F911
:1034D00007301201D2B20B4483F800230AE03B68A4
:1034E000DAB20849FB7903F00F03043B1201D2B2B0
:1034F0000B441A7600BF0C37BD4680BC704700BF36
:1035000000E100E000ED00E080B489B000AFF860B9
:10351000B9607A60FB6803F00703FB61FB69C3F1E4
:103520000703042B28BF0423BB61FB690433062B6C
:1035300002D9FB69033B00E000237B614FF0FF32BF
:10354000BB6902FA03F3DA43BB681A407B699A400D
:103550004FF0FF317B6901FA03F3D9437B680B40DD
:10356000134318462437BD4680BC704780B582B0EF
:1035700000AF78607B68013BB3F1807F01D301230A
:103580000FE00A4A7B68013B53600F214FF0FF3088
:10359000FFF790FF054B00229A60044B07221A6048
:1035A000002318460837BD4680BD00BF10E000E08C
:1035B00080B582B000AF78607868FFF72DFF00BF5C
:1035C0000837BD4680BD80B586B000AF0346B96000
:1035D0007A60FB7300237B61FFF742FF78617A68B2
:1035E000B9687869FFF790FF024697F90F301146E6
:1035F0001846FFF75FFF00BF1837BD4680BD80B596
:1036000082B000AF0346FB7197F907301846FFF709
:1036100035FF00BF0837BD4680BD80B582B000AF22
:1036200078607868FFF7A2FF034618460837BD4662
:1036300080BD000080B48BB000AF7860396000239B
:103640007B6200233B6269E101227B6A02FA03F399
:10365000FB613B681B68FA691340BB61BA69FB698F
:103660009A4240F058813B685B689A4A93425ED028
:10367000984A934275D8984A934258D0964A9342B2
:103680006FD8964A934252D0944A934269D8944A4A
:1036900093424CD0924A934263D8924A934246D086
:1036A000904A93425DD8122B2AD8122B59D801A2E6
:1036B00052F823F02F370008093700081B3700089D
:1036C0005D37000863370008633700086337000878
:1036D0006337000863370008633700086337000862
:1036E0006337000863370008633700086337000852
:1036F00063370008633700081137000825370008D2
:10370000794A934213D02CE03B68DB683B6229E0A6
:103710003B68DB6804333B6224E03B68DB680833CA
:103720003B621FE03B68DB680C333B621AE03B689E
:103730009B68002B02D104233B6213E03B689B682B
:10374000012B05D108233B627B68FA691A6109E005
:1037500008233B627B68FA695A6103E000233B62FD
:1037600000E000BFBB69FF2B01D87B6801E07B68EC
:1037700004337B61BB69FF2B02D87B6A9B0002E0AC
:103780007B6A083B9B003B617B691A680F213B69A0
:1037900001FA03F3DB431A40396A3B6901FA03F388
:1037A0001A437B691A603B685B6803F08053002B07
:1037B00000F0B1804D4B9B694C4A43F0010393618B
:1037C0004A4B9B6903F00103BB60BB68484A7B6AB4
:1037D0009B08023352F82330FB607B6A03F003033B
:1037E0009B000F2202FA03F3DB43FA681340FB60ED
:1037F0007B68404A934213D07B683F4A93420DD086
:103800007B683E4A934207D07B683D4A934201D190
:10381000032306E0042304E0022302E0012300E086
:1038200000237A6A02F0030292009340FA6813437D
:10383000FB602F497B6A9B080233FA6841F823201A
:103840003B685B6803F48013002B06D02D4B9A680D
:103850002C49BB6913438B6006E02A4B9A68BB690D
:10386000DB43284913408B603B685B6803F400131B
:10387000002B06D0234BDA682249BB691343CB6087
:1038800006E0204BDA68BB69DB431E491340CB607E
:103890003B685B6803F40033002B06D0194B5A6871
:1038A0001849BB6913434B6006E0164B5A68BB6965
:1038B000DB43144913404B603B685B6803F480337F
:1038C000002B21D00F4B1A680E49BB6913430B60C4
:1038D00021E000BF00003210000031100000221073
:1038E0000000211000001210000011100010024012
:1038F0000000014000080140000C014000100140A0
:1039000000140140000401400B4B1A68BB69DB4303
:10391000094913400B607B6A01337B623B681A687C
:103920007B6A22FA03F3002B7FF48EAE00BF00BF48
:103930002C37BD4680BC70470004014080B483B082
:1039400000AF78600B467B8013467B707B78002B42
:1039500003D07A887B681A6103E07B881A047B684D
:103960001A6100BF0C37BD4680BC704780B485B07B
:1039700000AF78600B467B807B68DB68FB607A88F1
:10398000FB6813401A04FB68D9437B880B401A4339
:103990007B681A6100BF1437BD4680BC70470000C9
:1039A00080B586B000AF78607B68002B01D1012321
:1039B00072E27B681B6803F00103002B00F0878034
:1039C000924B5B6803F00C03042B0CD08F4B5B68AD
:1039D00003F00C03082B12D18C4B5B6803F480338B
:1039E000B3F5803F0BD1894B1B6803F40033002BE8
:1039F0006CD07B685B68002B68D101234CE27B684C
:103A00005B68B3F5803F06D1804B1B687F4A43F467
:103A1000803313602EE07B685B68002B0CD17B4BFE
:103A20001B687A4A23F480331360784B1B68774A0B
:103A300023F4802313601DE07B685B68B3F5A02F3F
:103A40000CD1724B1B68714A43F4802313606F4B97
:103A50001B686E4A43F4803313600BE06B4B1B68AA
:103A60006A4A23F480331360684B1B68674A23F467
:103A7000802313607B685B68002B13D0FEF73CFB50
:103A8000386108E0FEF738FB02463B69D31A642B25
:103A900001D9032300E25D4B1B6803F40033002BC4
:103AA000F0D014E0FEF728FB386108E0FEF724FBB5
:103AB00002463B69D31A642B01D90323ECE1534B33
:103AC0001B6803F40033002BF0D100E000BF7B68DB
:103AD0001B6803F00203002B63D04C4B5B6803F0C0
:103AE0000C03002B0BD0494B5B6803F00C03082B35
:103AF0001CD1464B5B6803F48033002B16D1434B3B
:103B00001B6803F00203002B05D07B681B69012BA7
:103B100001D00123C0E13D4B1B6823F0F8027B6814
:103B20005B69DB00394913430B603AE07B681B6932
:103B3000002B20D0364B01221A60FEF7DDFA3861E7
:103B400008E0FEF7D9FA02463B69D31A022B01D9E5
:103B50000323A1E12D4B1B6803F00203002BF0D0DF
:103B60002A4B1B6823F0F8027B685B69DB0027495E
:103B700013430B6015E0264B00221A60FEF7BCFAD7
:103B8000386108E0FEF7B8FA02463B69D31A022B07
:103B900001D9032380E11D4B1B6803F00203002BB6
:103BA000F0D17B681B6803F00803002B3AD07B68D8
:103BB0009B69002B19D0174B01221A60FEF79CFA63
:103BC000386108E0FEF798FA02463B69D31A022BE7
:103BD00001D9032360E10D4B5B6A03F00203002B64
:103BE000F0D0012000F09CFA1CE00A4B00221A6081
:103BF000FEF782FA38610FE0FEF77EFA02463B6973
:103C0000D31A022B08D9032346E100BF001002405B
:103C10000000424280044242924B5B6A03F002037E
:103C2000002BE9D17B681B6803F00403002B00F034
:103C3000A6800023FB758B4BDB6903F08053002BC0
:103C40000DD1884BDB69874A43F08053D361854BA4
:103C5000DB6903F08053BB60BB680123FB75824BBB
:103C60001B6803F48073002B18D17F4B1B687E4ABE
:103C700043F480731360FEF73FFA386108E0FEF703
:103C80003BFA02463B69D31A642B01D9032303E1B3
:103C9000754B1B6803F48073002BF0D07B68DB68E6
:103CA000012B06D16F4B1B6A6E4A43F0010313626E
:103CB0002DE07B68DB68002B0CD16A4B1B6A694ADC
:103CC00023F001031362674B1B6A664A23F0040367
:103CD00013621CE07B68DB68052B0CD1614B1B6A0F
:103CE000604A43F0040313625E4B1B6A5D4A43F073
:103CF000010313620BE05B4B1B6A5A4A23F001037A
:103D00001362584B1B6A574A23F0040313627B6803
:103D1000DB68002B15D0FEF7EFF938610AE0FEF7FB
:103D2000EBF902463B69D31A41F28832934201D93A
:103D30000323B1E04B4B1B6A03F00203002BEED0D0
:103D400014E0FEF7D9F938610AE0FEF7D5F902462A
:103D50003B69D31A41F28832934201D903239BE095
:103D6000404B1B6A03F00203002BEED1FB7D012BBD
:103D700005D13C4BDB693B4A23F08053D3617B6820
:103D8000DB69002B00F08780364B5B6803F00C0387
:103D9000082B61D07B68DB69022B46D1334B0022B4
:103DA0001A60FEF7A9F9386108E0FEF7A5F90246A6
:103DB0003B69D31A022B01D903236DE0294B1B6801
:103DC00003F00073002BF0D17B681B6AB3F5803FD2
:103DD00008D1244B5B6823F400327B689B6821493F
:103DE00013434B601F4B5B6823F474127B68196AA2
:103DF0007B685B6A0B431B4913434B601B4B0122DF
:103E00001A60FEF779F9386108E0FEF775F90246A5
:103E10003B69D31A022B01D903233DE0114B1B68E8
:103E200003F00073002BF0D035E0104B00221A6035
:103E3000FEF762F9386108E0FEF75EF902463B6979
:103E4000D31A022B01D9032326E0064B1B6803F08B
:103E50000073002BF0D11EE07B68DB69012B07D1DA
:103E6000012319E00010024000700040600042424F
:103E70000B4B5B68FB60FB6803F480327B681B6A5A
:103E80009A4206D1FB6803F470127B685B6A9A421F
:103E900001D0012300E0002318461837BD4680BD3D
:103EA0000010024080B584B000AF786039607B6854
:103EB000002B01D10123D0E06A4B1B6803F00703FC
:103EC0003A689A4210D9674B1B6823F0070265498C
:103ED0003B6813430B60634B1B6803F007033A68AE
:103EE0009A4201D00123B8E07B681B6803F002030B
:103EF000002B20D07B681B6803F00403002B05D047
:103F0000594B5B68584A43F4E06353607B681B6815
:103F100003F00803002B05D0534B5B68524A43F46F
:103F200060535360504B5B6823F0F0027B689B68E2
:103F30004D4913434B607B681B6803F00103002B62
:103F400040D07B685B68012B07D1474B1B6803F4AB
:103F50000033002B15D101237FE07B685B68022BC7
:103F600007D1414B1B6803F00073002B09D10123DB
:103F700073E03D4B1B6803F00203002B01D10123CA
:103F80006BE0394B5B6823F003027B685B68364962
:103F900013434B60FEF7B0F8F8600AE0FEF7ACF8A8
:103FA0000246FB68D31A41F28832934201D90323B7
:103FB00053E02D4B5B6803F00C027B685B689B0051
:103FC0009A42EBD1274B1B6803F007033A689A42E9
:103FD00010D2244B1B6823F0070222493B6813438D
:103FE0000B60204B1B6803F007033A689A4201D02C
:103FF000012332E07B681B6803F00403002B08D028
:10400000194B5B6823F4E0627B68DB681649134355
:104010004B607B681B6803F00803002B09D0124B30
:104020005B6823F460527B681B69DB000E49134315
:104030004B6000F021F802460B4B5B681B0903F054
:104040000F030A49CB5C22FA03F3094A1360094BB8
:104050001B681846FEF70EF8002318461037BD46B9
:1040600080BD00BF00200240001002404454000800
:10407000080000200C00002080B487B000AF0023AF
:10408000FB600023BB6000237B6100237B60002377
:104090003B611E4B5B68FB60FB6803F00C03042B69
:1040A00002D0082B03D027E0194B3B6127E0FB68C7
:1040B0009B0C03F00F03174AD35C7B60FB6803F48F
:1040C0008033002B10D0114B5B685B0C03F00103B5
:1040D000114AD35CBB607B680D4A03FB02F2BB68EC
:1040E000B2FBF3F37B6104E07B680C4A02FB03F351
:1040F0007B617B693B6102E0054B3B6100BF3B6933
:1041000018461C37BD4680BC704700BF00100240F7
:1041100000127A00545400086454000800093D005D
:1041200080B485B000AF78600A4B1B680A4AA2FBD6
:1041300003235B0A7A6802FB03F3FB6000BFFB68A2
:104140005A1EFA60002BF9D100BF00BF1437BD46DC
:1041500080BC704708000020D34D621080B586B047
:1041600000AF786000233B610023FB607B681B6825
:1041700003F00103002B7DD00023FB754F4BDB695F
:1041800003F08053002B0DD14C4BDB694B4A43F0BD
:104190008053D361494BDB6903F08053BB60BB683C
:1041A0000123FB75464B1B6803F48073002B18D169
:1041B000434B1B68424A43F480731360FDF79CFF36
:1041C000386108E0FDF798FF02463B69D31A642B7B
:1041D00001D903236DE03A4B1B6803F48073002B75
:1041E000F0D0364B1B6A03F44073FB60FB68002B76
:1041F0002ED07B685B6803F44073FA689A4227D03C
:104200002E4B1B6A23F44073FB602E4B01221A6075
:104210002C4B00221A60294AFB681362FB6803F0EA
:104220000103002B14D0FDF767FF38610AE0FDF7AA
:1042300063FF02463B69D31A41F28832934201D9A7
:10424000032336E01D4B1B6A03F00203002BEED064
:104250001A4B1B6A23F440727B685B68174913434F
:104260000B62FB7D012B05D1144BDB69134A23F054
:104270008053D3617B681B6803F00203002B08D0D6
:104280000E4B5B6823F440427B689B680B491343E9
:104290004B607B681B6803F01003002B08D0074BB2
:1042A0005B6823F480027B68DB68044913434B603E
:1042B000002318461837BD4680BD00BF00100240DD
:1042C000007000404004424280B582B000AF786088
:1042D0007B68002B01D1012341E07B6893F83D30DE
:1042E000DBB2002B06D17B68002283F83C20786883
:1042F000FDF796FD7B68022283F83D207B681A68F3
:104300007B6804331946104600F0FEFC7B680122EE
:1043100083F846207B68012283F83E207B680122D7
:1043200083F83F207B68012283F840207B680122CC
:1043300083F841207B68012283F842207B680122B8
:1043400083F843207B68012283F844207B680122A4
:1043500083F845207B68012283F83D20002318461E
:104360000837BD4680BD80B582B000AF78607B68FD
:10437000002B01D1012341E07B6893F83D30DBB293
:10438000002B06D17B68002283F83C20786800F07F
:1043900039F87B68022283F83D207B681A687B68C5
:1043A00004331946104600F0AFFC7B68012283F805
:1043B00046207B68012283F83E207B68012283F837
:1043C0003F207B68012283F840207B68012283F82C
:1043D00041207B68012283F842207B68012283F818
:1043E00043207B68012283F844207B68012283F804
:1043F00045207B68012283F83D20002318460837BA
:10440000BD4680BD80B483B000AF786000BF0C377C
:10441000BD4680BC7047000080B584B000AF7860B6
:1044200039603B68002B09D17B6893F83E30DBB2E2
:10443000012B14BF01230023DBB222E03B68042BD5
:1044400009D17B6893F83F30DBB2012B14BF012305
:104450000023DBB215E03B68082B09D17B6893F899
:104460004030DBB2012B14BF01230023DBB208E094
:104470007B6893F84130DBB2012B14BF012300238A
:10448000DBB2002B01D001235EE03B68002B04D19E
:104490007B68022283F83E2013E03B68042B04D1A2
:1044A0007B68022283F83F200BE03B68082B04D195
:1044B0007B68022283F8402003E07B68022283F8B5
:1044C00041207B681B6801223968184600F0A8FE6D
:1044D0007B681B681E4A934207D17B681B685A6C35
:1044E0007B681B6842F400425A647B681B68184A68
:1044F00093420ED07B681B68B3F1804F09D07B6874
:104500001B68144A934204D07B681B68124A93428A
:1045100011D17B681B689B6803F00703FB60FB6895
:10452000062B10D07B681B681A687B681B6842F0FA
:1045300001021A6007E07B681B681A687B681B68C9
:1045400042F001021A60002318461037BD4680BDB4
:10455000002C0140000400400008004080B586B0F7
:1045600000AF786039607B68002B01D1012393E0B4
:104570007B6893F83D30DBB2002B06D17B680022CC
:1045800083F83C207868FDF767FC7B68022283F89B
:104590003D207B681B689B687A68126823F480431F
:1045A00023F0070393607B681A687B68043319461D
:1045B000104600F0A9FB7B681B689B687B617B68E9
:1045C0001B689B693B617B681B681B6AFB603B68DF
:1045D0001B687A6913437B613B6923F4407323F0C2
:1045E00003033B613B689A683B689B691B0213436A
:1045F0003A6913433B613B6923F4406323F00C03A6
:104600003B613B6923F4704323F0F0033B613B685B
:10461000DA683B68DB691B0213433A6913433B6169
:104620003B681B691A013B681B6A1B0313433A6909
:1046300013433B61FB6823F02203FB603B685A682D
:104640003B685B691B011343FA681343FB607B689B
:104650001B687A699A607B681B683A699A617B6813
:104660001B68FA681A627B68012283F846207B681F
:10467000012283F83E207B68012283F83F207B687B
:10468000012283F842207B68012283F843207B6863
:10469000012283F83D20002318461837BD4680BD0F
:1046A00080B584B000AF786039607B6893F83E30A5
:1046B000FB737B6893F83F30BB737B6893F84230A1
:1046C0007B737B6893F843303B733B68002B10D1BE
:1046D000FB7B012B02D17B7B012B01D0012369E005
:1046E0007B68022283F83E207B68022283F8422006
:1046F00031E03B68042B10D1BB7B012B02D13B7B0B
:10470000012B01D0012355E07B68022283F83F2072
:104710007B68022283F843201DE0FB7B012B08D13C
:10472000BB7B012B05D17B7B012B02D13B7B012B7A
:1047300001D001233EE07B68022283F83E207B68A3
:10474000022283F83F207B68022283F842207B68A4
:10475000022283F843203B68002B03D03B68042BE4
:1047600008D00FE07B681B6801220021184600F08A
:1047700057FD16E07B681B6801220421184600F0F3
:104780004FFD0EE07B681B6801220021184600F0F7
:1047900047FD7B681B6801220421184600F040FD9C
:1047A00000BF7B681B681A687B681B6842F00102C7
:1047B0001A60002318461037BD4680BD80B584B00E
:1047C00000AF78607B681B68DB68FB607B681B68F8
:1047D0001B69BB60BB6803F00203002B20D0FB68A1
:1047E00003F00203002B1BD07B681B686FF00202F2
:1047F0001A617B6801221A777B681B689B6903F04A
:104800000303002B03D0786800F063FA05E07868B2
:1048100000F056FA786800F065FA7B6800221A7793
:10482000BB6803F00403002B20D0FB6803F00403F3
:10483000002B1BD07B681B686FF004021A617B6839
:1048400002221A777B681B689B6903F44073002B74
:1048500003D0786800F03DFA05E0786800F030FA9F
:10486000786800F03FFA7B6800221A77BB6803F093
:104870000803002B20D0FB6803F00803002B1BD09B
:104880007B681B686FF008021A617B6804221A7744
:104890007B681B68DB6903F00303002B03D0786897
:1048A00000F017FA05E0786800F00AFA786800F07E
:1048B00019FA7B6800221A77BB6803F01003002BFB
:1048C00020D0FB6803F01003002B1BD07B681B6813
:1048D0006FF010021A617B6808221A777B681B68E8
:1048E000DB6903F44073002B03D0786800F0F1F922
:1048F00005E0786800F0E4F9786800F0F3F97B6887
:1049000000221A77BB6803F00103002B0CD0FB6870
:1049100003F00103002B07D07B681B686FF00102D6
:104920001A61786800F0C3F9BB6803F08003002BBC
:104930000CD0FB6803F08003002B07D07B681B685A
:104940006FF080021A61786800F0F5FCBB6803F034
:104950004003002B0CD0FB6803F04003002B07D072
:104960007B681B686FF040021A61786800F0C3F939
:10497000BB6803F02003002B0CD0FB6803F020037E
:10498000002B07D07B681B686FF020021A617868E3
:1049900000F0C8FC00BF1037BD4680BD80B586B0B2
:1049A00000AFF860B9607A600023FB75FB6893F88C
:1049B0003C30012B01D10223AEE0FB68012283F8D9
:1049C0003C207B680C2B00F29F8001A252F823F060
:1049D000054A0008094B0008094B0008094B00086C
:1049E000454A0008094B0008094B0008094B00081C
:1049F000874A0008094B0008094B0008094B0008CA
:104A0000C74A0008FB681B68B968184600F0EAF955
:104A1000FB681B689A69FB681B6842F008029A6190
:104A2000FB681B689A69FB681B6822F004029A61A4
:104A3000FB681B689969BB681A69FB681B680A43B5
:104A40009A6164E0FB681B68B968184600F030FAA8
:104A5000FB681B689A69FB681B6842F400629A61F4
:104A6000FB681B689A69FB681B6822F480629A6184
:104A7000FB681B689969BB681B691A02FB681B68A5
:104A80000A439A6143E0FB681B68B968184600F066
:104A900079FAFB681B68DA69FB681B6842F0080258
:104AA000DA61FB681B68DA69FB681B6822F00402A4
:104AB000DA61FB681B68D969BB681A69FB681B6807
:104AC0000A43DA6123E0FB681B68B968184600F006
:104AD000C3FAFB681B68DA69FB681B6842F4006272
:104AE000DA61FB681B68DA69FB681B6822F4806284
:104AF000DA61FB681B68D969BB681B691A02FB682D
:104B00001B680A43DA6102E00123FB7500BFFB6802
:104B1000002283F83C20FB7D18461837BD4680BD37
:104B200080B584B000AF786039600023FB737B6888
:104B300093F83C30012B01D10223B4E07B680122C1
:104B400083F83C207B68022283F83D207B681B6849
:104B50009B68BB60BB6823F07703BB60BB6823F432
:104B60007F43BB607B681B68BA689A603B681B68C0
:104B7000B3F5005F3ED0B3F5005F00F28780B3F578
:104B8000805F00F08680B3F5805F7FD8702B1AD0ED
:104B9000702B7BD8602B50D0602B77D8502B3CD01B
:104BA000502B73D8402B58D0402B6FD8302B64D06B
:104BB000302B6BD8202B60D0202B67D8002B5CD0FB
:104BC000102B5AD062E07B6818683B6899683B6894
:104BD0005A683B68DB6800F004FB7B681B689B68D5
:104BE000BB60BB6843F07703BB607B681B68BA6837
:104BF0009A604FE07B6818683B6899683B685A6820
:104C00003B68DB6800F0EDFA7B681B689A687B689C
:104C10001B6842F480429A603CE07B6818683B68FD
:104C200059683B68DB681A4600F064FA7B681B68C9
:104C30005021184600F0BBFA2CE07B6818683B68EE
:104C400059683B68DB681A4600F082FA7B681B688B
:104C50006021184600F0ABFA1CE07B6818683B68DE
:104C600059683B68DB681A4600F044FA7B681B68A9
:104C70004021184600F09BFA0CE07B681A683B68FC
:104C80001B681946104600F092FA03E00123FB73FB
:104C900000E000BF7B68012283F83D207B68002292
:104CA00083F83C20FB7B18461037BD4680BD80B49E
:104CB00083B000AF786000BF0C37BD4680BC704742
:104CC00080B483B000AF786000BF0C37BD4680BCB5
:104CD000704780B483B000AF786000BF0C37BD462A
:104CE00080BC704780B483B000AF786000BF0C37E1
:104CF000BD4680BC704780B483B000AF786000BF11
:104D00000C37BD4680BC704780B485B000AF78607A
:104D100039607B681B68FB607B682F4A93420BD02D
:104D20007B68B3F1804F07D07B682C4A934203D055
:104D30007B682B4A934208D1FB6823F07003FB6029
:104D40003B685B68FA681343FB607B68224A9342C6
:104D50000BD07B68B3F1804F07D07B681F4A93422A
:104D600003D07B681E4A934208D1FB6823F440734A
:104D7000FB603B68DB68FA681343FB60FB6823F069
:104D800080023B685B691343FB607B68FA681A60CA
:104D90003B689A687B68DA623B681A687B689A624B
:104DA0007B680D4A934203D13B681A697B681A639A
:104DB0007B6801225A617B681B6903F00103002BA9
:104DC00005D07B681B6923F001027B681A6100BF74
:104DD0001437BD4680BC7047002C014000040040E1
:104DE0000008004080B487B000AF786039607B680D
:104DF0001B6A7B617B681B6A23F001027B681A6275
:104E00007B685B683B617B689B69FB60FB6823F0A8
:104E10007003FB60FB6823F00303FB603B681B68C7
:104E2000FA681343FB607B6923F002037B613B68F4
:104E30009B687A6913437B617B681C4A93420CD15F
:104E40007B6923F008037B613B68DB687A69134365
:104E50007B617B6923F004037B617B68134A934287
:104E600011D13B6923F480733B613B6923F40073E8
:104E70003B613B685B693A6913433B613B689B69F3
:104E80003A6913433B617B683A695A607B68FA6808
:104E90009A613B685A687B685A637B687A691A62D0
:104EA00000BF1C37BD4680BC704700BF002C0140CE
:104EB00080B487B000AF786039607B681B6A7B6123
:104EC0007B681B6A23F010027B681A627B685B6850
:104ED0003B617B689B69FB60FB6823F4E043FB60FC
:104EE000FB6823F44073FB603B681B681B02FA6895
:104EF0001343FB607B6923F020037B613B689B6865
:104F00001B017A6913437B617B681D4A93420DD173
:104F10007B6923F080037B613B68DB681B017A6956
:104F200013437B617B6923F040037B617B68144AF8
:104F3000934213D13B6923F480633B613B6923F4C3
:104F400000633B613B685B699B003A6913433B61CB
:104F50003B689B699B003A6913433B617B683A69F4
:104F60005A607B68FA689A613B685A687B689A6302
:104F70007B687A691A6200BF1C37BD4680BC7047E7
:104F8000002C014080B487B000AF786039607B6846
:104F90001B6A7B617B681B6A23F480727B681A62E0
:104FA0007B685B683B617B68DB69FB60FB6823F0C7
:104FB0007003FB60FB6823F00303FB603B681B6826
:104FC000FA681343FB607B6923F400737B613B68E1
:104FD0009B681B027A6913437B617B681D4A93427D
:104FE0000DD17B6923F400637B613B68DB681B02A6
:104FF0007A6913437B617B6923F480637B617B68FF
:10500000144A934213D13B6923F480533B613B69BB
:1050100023F400533B613B685B691B013A6913430E
:105020003B613B689B691B013A6913433B617B68A9
:105030003A695A607B68FA68DA613B685A687B684B
:10504000DA637B687A691A6200BF1C37BD4680BC90
:10505000704700BF002C014080B487B000AF78607B
:1050600039607B681B6A3B617B681B6A23F4805252
:105070007B681A627B685B687B617B68DB69FB60CD
:10508000FB6823F4E043FB60FB6823F44073FB60A0
:105090003B681B681B02FA681343FB603B6923F4FF
:1050A00000533B613B689B681B033A6913433B61B8
:1050B0007B680F4A934209D17B6923F480437B616B
:1050C0003B685B699B017A6913437B617B687A6902
:1050D0005A607B68FA68DA613B685A687B681A64D0
:1050E0007B683A691A6200BF1C37BD4680BC7047B6
:1050F000002C014080B487B000AFF860B9607A60DE
:10510000FB681B6A7B61FB681B6A23F00102FB687A
:105110001A62FB689B693B613B6923F0F0033B61CA
:105120007B681B013A6913433B617B6923F00A03E7
:105130007B617A69BB6813437B61FB683A699A615A
:10514000FB687A691A6200BF1C37BD4680BC704795
:1051500080B487B000AFF860B9607A60FB681B6A02
:105160007B61FB681B6A23F01002FB681A62FB6814
:105170009B693B613B6923F470433B617B681B0384
:105180003A6913433B617B6923F0A0037B61BB68F1
:105190001B017A6913437B61FB683A699A61FB687A
:1051A0007A691A6200BF1C37BD4680BC704780B464
:1051B00085B000AF786039607B689B68FB60FB68F6
:1051C00023F07003FB603A68FB68134343F0070366
:1051D000FB607B68FA689A6000BF1437BD4680BCEC
:1051E000704780B487B000AFF860B9607A603B6008
:1051F000FB689B687B617B6923F47F437B613B6831
:105200001A027B681A43BB6813437A6913437B61B4
:10521000FB687A699A6000BF1C37BD4680BC704746
:1052200080B487B000AFF860B9607A60BB6803F003
:105230001F03012202FA03F37B61FB681A6A7B6990
:10524000DB431A40FB681A62FB681A6ABB6803F00A
:105250001F03796801FA03F31A43FB681A6200BF5F
:105260001C37BD4680BC704780B485B000AF786005
:1052700039607B6893F83C30012B01D1022346E072
:105280007B68012283F83C207B68022283F83D2062
:105290007B681B685B68FB607B681B689B68BB6006
:1052A000FB6823F07003FB603B681B68FA681343DC
:1052B000FB607B681B68FA685A607B681B68164A4B
:1052C00093420ED07B681B68B3F1804F09D07B6896
:1052D0001B68124A934204D07B681B68104A9342B1
:1052E0000CD1BB6823F08003BB603B685B68BA6885
:1052F0001343BB607B681B68BA689A607B680122B5
:1053000083F83D207B68002283F83C200023184668
:105310001437BD4680BC7047002C0140000400409B
:105320000008004080B483B000AF786000BF0C3745
:10533000BD4680BC704780B483B000AF786000BFCA
:105340000C37BD4680BC704703460244934200D1EF
:10535000704703F8011BF9E770B500260C4D0D4CA2
:10536000641BA410A64209D100F060F800260A4D83
:105370000A4C641BA410A64205D170BD55F8043B2D
:1053800098470136EEE755F8043B98470136F2E7B7
:105390006854000868540008685400086C540008F9
:1053A000F8B5C1F30A57A7F2FF32132A04460D4697
:1053B0000B461ADC002A0BDA01F00043013204BF6D
:1053C00043F07F5343F4401300221D46144616E079
:1053D000154810410140214311D04FF4002141FAFA
:1053E00002F2134423EA0003EEE7332A0ADDB2F5A2
:1053F000806F04D10246FAF7B1FE04460D462046FE
:105400002946F8BD4FF0FF30A7F21347F84020427D
:10541000F5D0C2F1330101228A40121928BF0133AD
:1054200022EA0002D1E700BFFFFF0F00F8B500BF7E
:10543000F8BC08BC9E467047F8B500BFF8BC08BC75
:045440009E467047CD
:105444000000000000000000010203040607080930
:1054540002030405060708090A0B0C0D0E0F1010B1
:045464000102000041
:045468003501000802
:04546C001101000822
:10547000070300000F00000000127A001000000077
:045480000100000027
:0400000508001FFDD3
:00000001FF
